:1000000001308A005F2900000A108A100A11820755
:10001000C034F934A434B034993492348234F8348E
:100020008034903444308400831300080319252859
:100030000630F800F701F70B1B28F80B1A287B3065
:10004000F700F70B2128800B1828080083160610EC
:10005000831206101230C400122006143130F7004B
:10006000F70B302833288316061483128A110A12DC
:10007000A7294230F700F70B3B280000061850284C
:100080008430F700F70B422845280000061C502852
:100090005230F700F70B4A284D2800000130F800D5
:1000A0008A110A12A829C6013C1C5628C40144081A
:1000B000073C031C9F28C50106186928C50A450886
:1000C000643C031865283C146928662867280000EA
:1000D0005C283130F700F70B6B286E280618812852
:1000E0004408073CC7000130F7004708F80003192F
:1000F0007D280310F70DF80B79287708FF3AC6051D
:100100009D284408073CC7000130F7004708F80065
:1001100003198E280310F70DF80B8A287708C604F8
:10012000061C9D28C50A4508643C031899283C1400
:100130009D289A289B2800009028C40A5728460822
:10014000F80008004408283C0318B928C3124308E3
:10015000831687008312871643134308831687008C
:1001600083120713C3134308831687008312871370
:10017000E22844081D3C031CD0284313430883167F
:10018000870083120717C312430883168700831260
:100190008712C31343088316870083128713E2284C
:1001A000C31343088316870083128717431343083A
:1001B0008316870083120713C31243088316870030
:1001C000831287128A110A12B7294508F8014402DE
:1001D0000318ED284408F700F928F7010830C60095
:1001E000C40DF70D450877020318F700F80DC60B8C
:1001F000F02808003D08C20043104308831687001A
:10020000831207144208C4000A30C500E5207808AC
:100210000420C4008316880183124408880001303A
:10022000C40012204310430883168700831207106E
:100230004208C4000A30C500E52077080420C40045
:1002400083168801831244088800C310430883166C
:100250008700831287140130C4001220C3104308A2
:100260008316870083128710831688019C308312BF
:100270008800431143088316870083120715013055
:10028000C40012204311430883168700831207110C
:1002900083168801C63083128800C3114308831671
:1002A0008700831287150130C4001220C311430850
:1002B00083168700831287118A110A12B82903084E
:1002C0001F398300FF30C30083161F149F141F15AE
:1002D0009F1107309C00831354308312A0006530B7
:1002E000A1006D30A2007030A3002030A4003D308A
:1002F000A5002030A6003030A700A8002E30A900AD
:100300003030AA002030AB004330AC00AD01523099
:10031000AE004830AF002030B000B100B2003D3038
:10032000B3002030B4003030B500B6002E30B70036
:100330003030B8002030B9002530BA00BB010030A1
:100340008316880087008312C3003C1026283928B2
:10035000F8080319B72953207808BF0053207808FC
:10036000C00053207808BD003D08C400A228FA2828
:04037000A529630058
:02400E00323F3F
:00000001FF
;PIC16F877A
;CRC=5419  CREATED="13-Dec-23 10:30"
