:040000000EEF02F00D
:0800080004EF04F00000000009
:1000100000000000000000000CEF04F010000D0ACA
:10002000426F6F746C6F616465722056657273699C
:100030006F6E20312E300D0A00000D0A5761697471
:10004000696E6720666F7220646F776E6C6F616493
:100050002E2E2E00EA6A4A0EE96EEF500EE0050ED3
:10006000016E006A002EFED7012EFBD72E0E006E09
:10007000002EFED700D0EF2EF2D712000900F55265
:100080000DE0F6CF4AF0F7CF4BF0F550A4A8FED71D
:10009000736E4AC0F6FF4BC0F7FFF0D71200A4AA58
:1000A000FED771CF06F074CF01F006A202D071988E
:1000B0007188D6EF00F0A4A8FED7736E1200836B90
:1000C000846B845101082BE382C003F081C0E9FFF7
:1000D00082C0EAFFEF50400810E28351100DF3CFC9
:1000E00085F082C003F081C0E9FF82C0EAFFEF50D3
:1000F0008525BF0F0A0F836F0CD08351100DF3CFEE
:1001000085F081C0E9FF82C0EAFFEF508525D00F5E
:10011000836F8451842B812BD8B4822BD2D783C098
:1001200001F01200F250036EF29EA68EA6840F011B
:10013000550EA76EAA0EA76EA68200000350F212FB
:1001400000011200D08CA69CF6503F0B006EC00E32
:10015000F6160A007DC001F0006607D0EECFF5FF6D
:10016000015204E00F00010603D000060B000C0052
:100170003F0EF6143F0AF0E1A688D4DFD3DF016614
:10018000EBD7F86AA7EF01F04A92506A4F6A4AB279
:100190003ED1076A036A0750080FE96E000E03207C
:1001A000EA6EEACF80F0E9CF7FF079D780C0EAFF2E
:1001B0007FC0E9FF01C0EFFF0750072A036A080F5D
:1001C000E96E000E0320EA6EEF500D0803E00750C1
:1001D0004008E0E2130E6FDF4A8008503A08D8A4C6
:1001E0000FD1826B090E816F6ADF01C057F0826BFD
:1001F0000B0E816F64DF01C07DF0826B0D0E816F8D
:100200005EDF7DC04EF001C04DF0826B0F0E816F3E
:1002100056DF01C04CF04FC053F050C054F04DC0F9
:1002200051F04EC052F04B6A010E566E030E075C41
:10023000565C14E2036A5650080F016E000E03224A
:1002400001C07DF003C07EF003C082F001C081F0E8
:1002500036DF01504B26020E5626E8D7FF0ED88017
:100260004B54010F4B6E030E075C036A080F016EBF
:10027000000E032201C07DF003C07EF003C082F0B7
:1002800001C081F01CDF01504B5C02E04A90B8D005
:100290004C2C02D04A82B4D04C50040811E1826B3D
:1002A000110E816F0CDF01C07DF0826B130E816F28
:1002B00006DF01C07EF07DC050F001C04FF0A0D03D
:1002C0004C52D8A49DD0090E566E556A030E075C99
:1002D000565C23E25550552A036A580F016E000EF2
:1002E000032201C07DF003C07EF0036A5650080F60
:1002F000016E000E032201C07FF003C080F003C036
:1003000082F001C081F0DBDE7EC0EAFF7DC0E9FF44
:1003100001C0EFFF020E5626D9D7545205E15352C1
:1003200003E15250070814E2545212E1535210E113
:1003300052507F080DE353C0F8FF52C0F7FF51C081
:10034000F6FFEA6A580EE96E57C07DF0FBD658D02A
:10035000545203E15350EF0853E2545251E15350C9
:10036000F0084EE303E1525000084AE37C6B000EB4
:10037000515C786F000E5258796FF00E53587A6FB7
:10038000000E54587B6F57505706000A39E07B51D6
:10039000036E7A51026E7951016E7851006E010E32
:1003A0007827D8B0792BD8B47A2BD8B47B2B03C05C
:1003B00080F002C07FF001C07EF000C07DF07C5173
:1003C0007C2B036A580FE96E000E0320EA6EEFCF14
:1003D00081F0F250006EF29E7DC0A9FF81C0A8FF9F
:1003E000A69CA69EA6840F01550EA76EAA0EA76E08
:1003F000A682A6B2FED7A6940050F2120001C3D77F
:100400004AA002D0060E57DE110E55DEC0D6060EEB
:1004100052DE110E50DEFF004DEF02F0F86AD09E62
:10042000700ED36E9B9C9B9E066A496A486A0F01B8
:10043000386B396B3A6B3B6B3C6B0101886B776AAD
:10044000786A796AC150F00BC16E0F0E0F01386FD8
:10045000000E3C6F396F3A6F3B6F776A040E786E0F
:10046000796E938881B81AD0900E4A6E0001F2DD41
:1004700070960C0E756EA20E726E900E716E190E45
:100480004A6EE8DD1E0EF66E000EF76EF7DD3A0ED0
:10049000F66E000EF76EF2DD77D60F01000100EF69
:0404A00004F0030061
:0608000000EF04F01200FD
:020000040030CA
:0E00000000E81E3C00BF81000FC00F800F40C3
:00000001FF
;PIC18F45K22
;CRC=077F  CREATED="04-Jun-15 11:47"
