:0400000078EF03F0A2
:0800080004EF04F00000000009
:1000100000000000000000000CEF04F01000426F30
:100020006F746C6F616465722052656164790D0A4A
:100030000000426F6F746C6F61646572205265617D
:1000400064790D0A0000EA6A8E0EE96EEF500EE048
:100050000C0E016E006A002EFED7012EFBD7F70EA4
:10006000006E002EFED700D0EF2EF2D712009EA811
:10007000FED7AD6E3EEF00F0C551F9D71200090072
:10008000F5520CE0F6CFC3F0F7CFC4F0F5CFC5F0D2
:10009000F3DFC3C0F6FFC4C0F7FFF1D71200496811
:1000A0004868F4EF01F09EA005D08A2BD8B48B2BC2
:1000B0009E9009D0CE50CFCF03F09EA007D08A2BC0
:1000C000D8B48B2B9E90CE50CFCF03F003C000F05E
:1000D0008AC001F08BC002F00232013200320232DB
:1000E0000132003202320132003202320132003279
:1000F00002320132003202320132003212008E0E20
:10010000006EC6C001F0C5C002F0036A015209E1E9
:1001100002C001F0026A080E005E015202E1006AAC
:1001200008D0D89001BE04D0023601360006F9D7B7
:10013000019E09EF02F0C6C0CDF0CA51CD1BCDAF74
:1001400005D0D894D890C6BFD8802FD0C6C0CDF0E7
:10015000C9C0CEF0C551CE5F06E0CDAF26D0D85095
:10016000010AD86E22D0CAC0CEF0C651CE5F06E0DA
:10017000CDAF1BD0D850010AD86E17D0CBC0CEF06F
:10018000C751CE5F06E0CDAF10D0D850010AD86E6F
:100190000CD0CCC0CEF0C851CE5F06E0CDAF05D0BC
:1001A000D850010AD86E01D0D8901AEF02F09EAA5A
:1001B000FED7ABCF06F0AECF01F006A202D0AB98CF
:1001C000AB8836EF02F0C96BCA6BCA5101082BE34A
:1001D000C8C003F0C7C0E9FFC8C0EAFFEF5040083D
:1001E00010E2C951100DF3CFCBF0C8C003F0C7C067
:1001F000E9FFC8C0EAFFEF50CB25BF0F0A0FC96F58
:100200000CD0C951100DF3CFCBF0C7C0E9FFC8C067
:10021000EAFFEF50CB25D00FC96FCA51CA2BC72BAD
:10022000D8B4C82BD2D7C9C001F01200F250036E67
:10023000F29EA68EA6840F01550EA76EAA0EA76E7B
:10024000A68200000350F21200011200D08CA69C7E
:10025000F6501F0B006EE00EF6160A00D1C001F03A
:10026000006608D0F650010F3F0B04E1A688090094
:10027000DDDF0A00006607D0EECFF5FF015204E093
:100280000F00010603D000060B000C001F0EF61431
:100290001F0AE6E1CBDF0166E3D7F86A6BEF01F0F6
:1002A000483C03D0493C01D018D0D08CF86A49C0F2
:1002B000F7FF48C0F6FFA688A69CB8DFF86A0400DE
:1002C000F86A49C0F7FF48C0F6FFEA6A4A0EE96ECD
:1002D000400ED16FBBD7496848681200D2C001F008
:1002E000D1C000F0D167012A0900F5CFEEFF002E42
:1002F000FBD7012EF9D7F86AA3EF01F0C551C00B67
:10030000CB6FC6C0CCF0CB51C55DCD6FCC51C659BB
:10031000CE6FC951CA1162E04850CB5D03E149502C
:10032000CC5D11E0BDDFCCC049F0CBC048F0F86A2D
:10033000CCC0F7FFCBC0F6FFEA6A4A0EE96ED26B7B
:10034000400ED16FCBD7400ED880CD55006E000E39
:10035000CE55036E00C001F00350CA5D0CE303E10B
:10036000C951015C08E2400ED880CD55CF6F000E18
:10037000CE55D06F04D0CAC0D0F0C9C0CFF04A0E5D
:10038000CD25016E000ECE21036E01C0D1F0D26FDB
:10039000EA6E01C0E9FFC8C0E2FFC7C0E1FFD0C0FC
:1003A00002F0CFC001F0015202E0022A02D0025254
:1003B00006E0E6CFEEFF012EFCD7022EFAD7CF5192
:1003C000C727D051C823400ECB27000ECC23CE6BBD
:1003D000CD6BCF51C95FD051CA5B9BD70BEF03F0F8
:1003E0009093966B956B5BD65EDE01C08FF000C07C
:1003F0008EF09EBA2CD057DE01C0C4F000C0C3F00E
:100400008E51C35F8F51C45BC4C0C6F0C3C0C5F07A
:1004100076D6C00EC86FE10EC76F640EC66F860E2B
:10042000C56F03C0CCF002C0CBF001C0CAF000C061
:10043000C9F081D601E20AE11E0EF66E000EF76EDB
:100440001EDE31DE01C08FF000C08EF0D2D790B337
:1004500045D1076A036A0750080FE96E000E0320B2
:10046000EA6EEACFC6F0E9CFC5F0A1D6C6C0EAFF72
:10047000C5C0E9FF01C0EFFF0750072A036A080F54
:10048000E96E000E0320EA6EEF500D0803E00750FE
:100490004008E0E2130EC56FEFDD908108503A0886
:1004A000D8A413D1C86B090EC76F8DDE01C09DF0B3
:1004B000C86B0B0EC76F87DE01C0C3F0C86B0D0E93
:1004C000C76F81DEC3C094F001C093F0C86B0F0EFC
:1004D000C76F79DE01C092F095C099F096C09AF08E
:1004E00093C097F094C098F0916B010E9C6F030E2F
:1004F000075C9C5D14E2036A9C51080F016E000EBC
:10050000032201C0C3F003C0C4F003C0C8F001C09F
:10051000C7F059DE01509127020E9C27E8D7FF0E45
:10052000D8809155010F916F030E075C036A080F85
:10053000016E000E032201C0C3F003C0C4F003C06B
:10054000C8F001C0C7F03FDE0150915D02E090911C
:10055000BCD0922D02D09083B8D09251040811E102
:10056000C86B110EC76F2FDE01C0C3F0C86B130E2E
:10057000C76F29DE01C0C4F0C3C096F001C095F07A
:10058000A4D09253D8A4A1D0090E9C6F9B6B030EEC
:10059000075C9C5D23E29B519B2B036A9E0F016EBF
:1005A000000E032201C0C3F003C0C4F0036A9C51D3
:1005B000080F016E000E032201C0C5F003C0C6F093
:1005C00003C0C8F001C0C7F0FEDDC4C0EAFFC3C06D
:1005D000E9FF01C0EFFF020E9C27D9D79A5305E12E
:1005E000995303E19851070817E29A5315E199537B
:1005F00013E198517F0810E398C0C4F097C0C3F08E
:1006000098C0C6F097C0C5F0C86B9E0EC76FCA6B86
:100610009DC0C9F073D659D09A5303E19951EF08A0
:1006200054E29A5352E19951F0084FE303E1985193
:1006300000084BE3C26B000E975DBE6F000E985929
:10064000BF6FF00E9959C06F000E9A59C16F28DE26
:100650009D519D07000A39E0C151036EC051026EE1
:10066000BF51016EBE51006E010EBE27D8B0BF2B28
:10067000D8B4C02BD8B4C12B03C0C6F002C0C5F09B
:1006800001C0C4F000C0C3F0C251C22B036A9E0F68
:10069000E96E000E0320EA6EEFCFC7F0F250006E55
:1006A000F29EC3C0A9FFC7C0A8FFA69CA69EA684B1
:1006B0000F01550EA76EAA0EA76EA682A6B2FED790
:1006C000A6940050F2120001C3D790A103D0060EE9
:1006D000C56FD2DC110EC56FCFDCB9D6E1DD060ED9
:1006E000C56FCADC110EC56FC7DCFF00B2EF03F0A7
:1006F000F86AD09E066A496848688B6B8A6BB50EAB
:10070000CD6ECF6ACE6A9E908D6B8C6BC150C00B44
:100710000F09C16E070EB46EC150C00B0E09C16E39
:10072000070EB46E9250926E210E006E002EFED710
:10073000B450A19C938281B215D0900E8E6F83DC51
:10074000B886080EAF6E020EB06EA60EAC6E900E9E
:10075000AB6E190E8E6F77DC320EF66E000EF76EF2
:0A0760008EDC3ED600EF04F003002B
:0608000000EF04F01200FD
:020000040030CA
:0E00000000C61E14008781000FC00F800F4045
:00000001FF
;PIC18F4523
;CRC=781A  CREATED="10-Jun-15 16:39"
